{
  "contractName": "AKAF",
  "abi": [
    {
      "inputs": [],
      "payable": false,
      "stateMutability": "nonpayable",
      "type": "constructor"
    },
    {
      "anonymous": false,
      "inputs": [
        {
          "indexed": true,
          "internalType": "address",
          "name": "owner",
          "type": "address"
        },
        {
          "indexed": true,
          "internalType": "address",
          "name": "approved",
          "type": "address"
        },
        {
          "indexed": true,
          "internalType": "uint256",
          "name": "tokenId",
          "type": "uint256"
        }
      ],
      "name": "Approval",
      "type": "event"
    },
    {
      "anonymous": false,
      "inputs": [
        {
          "indexed": true,
          "internalType": "address",
          "name": "owner",
          "type": "address"
        },
        {
          "indexed": true,
          "internalType": "address",
          "name": "operator",
          "type": "address"
        },
        {
          "indexed": false,
          "internalType": "bool",
          "name": "approved",
          "type": "bool"
        }
      ],
      "name": "ApprovalForAll",
      "type": "event"
    },
    {
      "anonymous": false,
      "inputs": [
        {
          "indexed": true,
          "internalType": "address",
          "name": "sender",
          "type": "address"
        },
        {
          "indexed": true,
          "internalType": "uint256",
          "name": "nodeId",
          "type": "uint256"
        },
        {
          "indexed": false,
          "internalType": "enum IAKAP.NodeAttribute",
          "name": "attribute",
          "type": "uint8"
        }
      ],
      "name": "AttributeChanged",
      "type": "event"
    },
    {
      "anonymous": false,
      "inputs": [
        {
          "indexed": true,
          "internalType": "address",
          "name": "sender",
          "type": "address"
        },
        {
          "indexed": true,
          "internalType": "uint256",
          "name": "nodeId",
          "type": "uint256"
        },
        {
          "indexed": true,
          "internalType": "uint256",
          "name": "parentId",
          "type": "uint256"
        },
        {
          "indexed": false,
          "internalType": "bytes",
          "name": "label",
          "type": "bytes"
        },
        {
          "indexed": false,
          "internalType": "enum IAKAP.ClaimCase",
          "name": "claimCase",
          "type": "uint8"
        }
      ],
      "name": "Claim",
      "type": "event"
    },
    {
      "anonymous": false,
      "inputs": [
        {
          "indexed": true,
          "internalType": "address",
          "name": "from",
          "type": "address"
        },
        {
          "indexed": true,
          "internalType": "address",
          "name": "to",
          "type": "address"
        },
        {
          "indexed": true,
          "internalType": "uint256",
          "name": "tokenId",
          "type": "uint256"
        }
      ],
      "name": "Transfer",
      "type": "event"
    },
    {
      "constant": false,
      "inputs": [
        {
          "internalType": "address",
          "name": "to",
          "type": "address"
        },
        {
          "internalType": "uint256",
          "name": "tokenId",
          "type": "uint256"
        }
      ],
      "name": "approve",
      "outputs": [],
      "payable": false,
      "stateMutability": "nonpayable",
      "type": "function"
    },
    {
      "constant": true,
      "inputs": [
        {
          "internalType": "address",
          "name": "owner",
          "type": "address"
        }
      ],
      "name": "balanceOf",
      "outputs": [
        {
          "internalType": "uint256",
          "name": "",
          "type": "uint256"
        }
      ],
      "payable": false,
      "stateMutability": "view",
      "type": "function"
    },
    {
      "constant": true,
      "inputs": [
        {
          "internalType": "uint256",
          "name": "tokenId",
          "type": "uint256"
        }
      ],
      "name": "getApproved",
      "outputs": [
        {
          "internalType": "address",
          "name": "",
          "type": "address"
        }
      ],
      "payable": false,
      "stateMutability": "view",
      "type": "function"
    },
    {
      "constant": true,
      "inputs": [
        {
          "internalType": "address",
          "name": "owner",
          "type": "address"
        },
        {
          "internalType": "address",
          "name": "operator",
          "type": "address"
        }
      ],
      "name": "isApprovedForAll",
      "outputs": [
        {
          "internalType": "bool",
          "name": "",
          "type": "bool"
        }
      ],
      "payable": false,
      "stateMutability": "view",
      "type": "function"
    },
    {
      "constant": true,
      "inputs": [],
      "name": "name",
      "outputs": [
        {
          "internalType": "string",
          "name": "",
          "type": "string"
        }
      ],
      "payable": false,
      "stateMutability": "view",
      "type": "function"
    },
    {
      "constant": true,
      "inputs": [
        {
          "internalType": "uint256",
          "name": "tokenId",
          "type": "uint256"
        }
      ],
      "name": "ownerOf",
      "outputs": [
        {
          "internalType": "address",
          "name": "",
          "type": "address"
        }
      ],
      "payable": false,
      "stateMutability": "view",
      "type": "function"
    },
    {
      "constant": false,
      "inputs": [
        {
          "internalType": "address",
          "name": "from",
          "type": "address"
        },
        {
          "internalType": "address",
          "name": "to",
          "type": "address"
        },
        {
          "internalType": "uint256",
          "name": "tokenId",
          "type": "uint256"
        }
      ],
      "name": "safeTransferFrom",
      "outputs": [],
      "payable": false,
      "stateMutability": "nonpayable",
      "type": "function"
    },
    {
      "constant": false,
      "inputs": [
        {
          "internalType": "address",
          "name": "from",
          "type": "address"
        },
        {
          "internalType": "address",
          "name": "to",
          "type": "address"
        },
        {
          "internalType": "uint256",
          "name": "tokenId",
          "type": "uint256"
        },
        {
          "internalType": "bytes",
          "name": "_data",
          "type": "bytes"
        }
      ],
      "name": "safeTransferFrom",
      "outputs": [],
      "payable": false,
      "stateMutability": "nonpayable",
      "type": "function"
    },
    {
      "constant": false,
      "inputs": [
        {
          "internalType": "address",
          "name": "to",
          "type": "address"
        },
        {
          "internalType": "bool",
          "name": "approved",
          "type": "bool"
        }
      ],
      "name": "setApprovalForAll",
      "outputs": [],
      "payable": false,
      "stateMutability": "nonpayable",
      "type": "function"
    },
    {
      "constant": true,
      "inputs": [
        {
          "internalType": "bytes4",
          "name": "interfaceId",
          "type": "bytes4"
        }
      ],
      "name": "supportsInterface",
      "outputs": [
        {
          "internalType": "bool",
          "name": "",
          "type": "bool"
        }
      ],
      "payable": false,
      "stateMutability": "view",
      "type": "function"
    },
    {
      "constant": true,
      "inputs": [],
      "name": "symbol",
      "outputs": [
        {
          "internalType": "string",
          "name": "",
          "type": "string"
        }
      ],
      "payable": false,
      "stateMutability": "view",
      "type": "function"
    },
    {
      "constant": true,
      "inputs": [
        {
          "internalType": "uint256",
          "name": "index",
          "type": "uint256"
        }
      ],
      "name": "tokenByIndex",
      "outputs": [
        {
          "internalType": "uint256",
          "name": "",
          "type": "uint256"
        }
      ],
      "payable": false,
      "stateMutability": "view",
      "type": "function"
    },
    {
      "constant": true,
      "inputs": [
        {
          "internalType": "address",
          "name": "owner",
          "type": "address"
        },
        {
          "internalType": "uint256",
          "name": "index",
          "type": "uint256"
        }
      ],
      "name": "tokenOfOwnerByIndex",
      "outputs": [
        {
          "internalType": "uint256",
          "name": "",
          "type": "uint256"
        }
      ],
      "payable": false,
      "stateMutability": "view",
      "type": "function"
    },
    {
      "constant": true,
      "inputs": [
        {
          "internalType": "uint256",
          "name": "tokenId",
          "type": "uint256"
        }
      ],
      "name": "tokenURI",
      "outputs": [
        {
          "internalType": "string",
          "name": "",
          "type": "string"
        }
      ],
      "payable": false,
      "stateMutability": "view",
      "type": "function"
    },
    {
      "constant": true,
      "inputs": [],
      "name": "totalSupply",
      "outputs": [
        {
          "internalType": "uint256",
          "name": "",
          "type": "uint256"
        }
      ],
      "payable": false,
      "stateMutability": "view",
      "type": "function"
    },
    {
      "constant": false,
      "inputs": [
        {
          "internalType": "address",
          "name": "from",
          "type": "address"
        },
        {
          "internalType": "address",
          "name": "to",
          "type": "address"
        },
        {
          "internalType": "uint256",
          "name": "tokenId",
          "type": "uint256"
        }
      ],
      "name": "transferFrom",
      "outputs": [],
      "payable": false,
      "stateMutability": "nonpayable",
      "type": "function"
    },
    {
      "constant": true,
      "inputs": [
        {
          "internalType": "uint256",
          "name": "parentId",
          "type": "uint256"
        },
        {
          "internalType": "bytes",
          "name": "label",
          "type": "bytes"
        }
      ],
      "name": "hashOf",
      "outputs": [
        {
          "internalType": "uint256",
          "name": "id",
          "type": "uint256"
        }
      ],
      "payable": false,
      "stateMutability": "pure",
      "type": "function"
    },
    {
      "constant": false,
      "inputs": [
        {
          "internalType": "uint256",
          "name": "parentId",
          "type": "uint256"
        },
        {
          "internalType": "bytes",
          "name": "label",
          "type": "bytes"
        }
      ],
      "name": "claim",
      "outputs": [
        {
          "internalType": "uint256",
          "name": "status",
          "type": "uint256"
        }
      ],
      "payable": false,
      "stateMutability": "nonpayable",
      "type": "function"
    },
    {
      "constant": true,
      "inputs": [
        {
          "internalType": "uint256",
          "name": "nodeId",
          "type": "uint256"
        }
      ],
      "name": "exists",
      "outputs": [
        {
          "internalType": "bool",
          "name": "",
          "type": "bool"
        }
      ],
      "payable": false,
      "stateMutability": "view",
      "type": "function"
    },
    {
      "constant": true,
      "inputs": [
        {
          "internalType": "uint256",
          "name": "nodeId",
          "type": "uint256"
        }
      ],
      "name": "isApprovedOrOwner",
      "outputs": [
        {
          "internalType": "bool",
          "name": "",
          "type": "bool"
        }
      ],
      "payable": false,
      "stateMutability": "view",
      "type": "function"
    },
    {
      "constant": true,
      "inputs": [
        {
          "internalType": "uint256",
          "name": "nodeId",
          "type": "uint256"
        }
      ],
      "name": "parentOf",
      "outputs": [
        {
          "internalType": "uint256",
          "name": "",
          "type": "uint256"
        }
      ],
      "payable": false,
      "stateMutability": "view",
      "type": "function"
    },
    {
      "constant": true,
      "inputs": [
        {
          "internalType": "uint256",
          "name": "nodeId",
          "type": "uint256"
        }
      ],
      "name": "expiryOf",
      "outputs": [
        {
          "internalType": "uint256",
          "name": "",
          "type": "uint256"
        }
      ],
      "payable": false,
      "stateMutability": "view",
      "type": "function"
    },
    {
      "constant": true,
      "inputs": [
        {
          "internalType": "uint256",
          "name": "nodeId",
          "type": "uint256"
        }
      ],
      "name": "seeAlso",
      "outputs": [
        {
          "internalType": "uint256",
          "name": "",
          "type": "uint256"
        }
      ],
      "payable": false,
      "stateMutability": "view",
      "type": "function"
    },
    {
      "constant": true,
      "inputs": [
        {
          "internalType": "uint256",
          "name": "nodeId",
          "type": "uint256"
        }
      ],
      "name": "seeAddress",
      "outputs": [
        {
          "internalType": "address",
          "name": "",
          "type": "address"
        }
      ],
      "payable": false,
      "stateMutability": "view",
      "type": "function"
    },
    {
      "constant": true,
      "inputs": [
        {
          "internalType": "uint256",
          "name": "nodeId",
          "type": "uint256"
        }
      ],
      "name": "nodeBody",
      "outputs": [
        {
          "internalType": "bytes",
          "name": "",
          "type": "bytes"
        }
      ],
      "payable": false,
      "stateMutability": "view",
      "type": "function"
    },
    {
      "constant": false,
      "inputs": [
        {
          "internalType": "uint256",
          "name": "nodeId",
          "type": "uint256"
        }
      ],
      "name": "expireNode",
      "outputs": [],
      "payable": false,
      "stateMutability": "nonpayable",
      "type": "function"
    },
    {
      "constant": false,
      "inputs": [
        {
          "internalType": "uint256",
          "name": "nodeId",
          "type": "uint256"
        },
        {
          "internalType": "uint256",
          "name": "value",
          "type": "uint256"
        }
      ],
      "name": "setSeeAlso",
      "outputs": [],
      "payable": false,
      "stateMutability": "nonpayable",
      "type": "function"
    },
    {
      "constant": false,
      "inputs": [
        {
          "internalType": "uint256",
          "name": "nodeId",
          "type": "uint256"
        },
        {
          "internalType": "address",
          "name": "value",
          "type": "address"
        }
      ],
      "name": "setSeeAddress",
      "outputs": [],
      "payable": false,
      "stateMutability": "nonpayable",
      "type": "function"
    },
    {
      "constant": false,
      "inputs": [
        {
          "internalType": "uint256",
          "name": "nodeId",
          "type": "uint256"
        },
        {
          "internalType": "bytes",
          "name": "value",
          "type": "bytes"
        }
      ],
      "name": "setNodeBody",
      "outputs": [],
      "payable": false,
      "stateMutability": "nonpayable",
      "type": "function"
    },
    {
      "constant": false,
      "inputs": [
        {
          "internalType": "uint256",
          "name": "nodeId",
          "type": "uint256"
        },
        {
          "internalType": "string",
          "name": "uri",
          "type": "string"
        }
      ],
      "name": "setTokenURI",
      "outputs": [],
      "payable": false,
      "stateMutability": "nonpayable",
      "type": "function"
    }
  ],
  "bytecode": "0x60806040523480156200001157600080fd5b50604080518082018252601481527f414b4120466f72657665722052656769737472790000000000000000000000006020808301919091528251808401909352600483526320a5a0a360e11b908301529081816200007f6301ffc9a760e01b6001600160e01b03620001c316565b6200009a6380ac58cd60e01b6001600160e01b03620001c316565b620000b563780e9d6360e01b6001600160e01b03620001c316565b8151620000ca90600990602085019062000482565b508051620000e090600a90602084019062000482565b50620000fc635b5e139f60e01b6001600160e01b03620001c316565b50600092506200012c91506200011c90506001600160e01b036200024816565b826001600160e01b036200024d16565b6000818152600c602052604090206000196001909101558080620001586001600160e01b036200024816565b6001600160a01b03167f2574d3b5e98dcd17b129343ee43bda3629741c9f23256766c603c18f2c1f014e600160405180806020018360028111156200019957fe5b60ff1681526020018281038252600081526020016020019250505060405180910390a45062000524565b6001600160e01b0319808216141562000223576040805162461bcd60e51b815260206004820152601c60248201527f4552433136353a20696e76616c696420696e7465726661636520696400000000604482015290519081900360640190fd5b6001600160e01b0319166000908152602081905260409020805460ff19166001179055565b335b90565b6200026482826200029160201b62001ff21760201c565b6200027982826001600160e01b03620003da16565b6200028d816001600160e01b036200041816565b5050565b6001600160a01b038216620002ed576040805162461bcd60e51b815260206004820181905260248201527f4552433732313a206d696e7420746f20746865207a65726f2061646472657373604482015290519081900360640190fd5b62000301816001600160e01b036200045c16565b1562000354576040805162461bcd60e51b815260206004820152601c60248201527f4552433732313a20746f6b656e20616c7265616479206d696e74656400000000604482015290519081900360640190fd5b600081815260016020908152604080832080546001600160a01b0319166001600160a01b0387169081179091558352600382529091206200039e9162000479811b620021c117901c565b60405181906001600160a01b038416906000907fddf252ad1be2c89b69c2b068fc378daa952ba7f163c4a11628f55a4df523b3ef908290a45050565b6001600160a01b0390911660009081526005602081815260408084208054868652600684529185208290559282526001810183559183529091200155565b600780546000838152600860205260408120829055600182018355919091527fa66cc928b5edb82af9bd49922954155ab7b0942694bea4ce44661d9a8736c6880155565b6000908152600160205260409020546001600160a01b0316151590565b80546001019055565b828054600181600116156101000203166002900490600052602060002090601f016020900481019282601f10620004c557805160ff1916838001178555620004f5565b82800160010185558215620004f5579182015b82811115620004f5578251825591602001919060010190620004d8565b506200050392915062000507565b5090565b6200024a91905b808211156200050357600081556001016200050e565b61266180620005346000396000f3fe608060405234801561001057600080fd5b50600436106101da5760003560e01c8063631fb72611610104578063b0690124116100a2578063c87b56dd11610071578063c87b56dd14610783578063cfa3c132146107a0578063e741cc4e146107bd578063e985e9c514610868576101da565b8063b069012414610610578063b88d4fde14610685578063b8af764214610749578063baef73e914610766576101da565b80637352f2b4116100de5780637352f2b41461059a5780638b73061f146105b757806395d89b41146105da578063a22cb465146105e2576101da565b8063631fb7261461053a5780636352211e1461055757806370a0823114610574576101da565b806323b872dd1161017c5780633a76c3021161014b5780633a76c3021461049e57806342842e0e146104ca5780634f558e79146105005780634f6ccce71461051d576101da565b806323b872dd146103aa5780632f745c59146103e0578063380a284c1461040c57806338926b6d14610429576101da565b8063095ea7b3116101b8578063095ea7b3146102d05780630d340c4a146102fe578063162094c41461031b57806318160ddd14610390576101da565b806301ffc9a7146101df57806306fdde031461021a578063081812fc14610297575b600080fd5b610206600480360360208110156101f557600080fd5b50356001600160e01b031916610896565b604080519115158252519081900360200190f35b6102226108b5565b6040805160208082528351818301528351919283929083019185019080838360005b8381101561025c578181015183820152602001610244565b50505050905090810190601f1680156102895780820380516001836020036101000a031916815260200191505b509250505060405180910390f35b6102b4600480360360208110156102ad57600080fd5b503561094c565b604080516001600160a01b039092168252519081900360200190f35b6102fc600480360360408110156102e657600080fd5b506001600160a01b0381351690602001356109ae565b005b6102fc6004803603602081101561031457600080fd5b5035610abf565b6102fc6004803603604081101561033157600080fd5b81359190810190604081016020820135600160201b81111561035257600080fd5b82018360208201111561036457600080fd5b803590602001918460018302840111600160201b8311171561038557600080fd5b509092509050610b87565b610398610c76565b60408051918252519081900360200190f35b6102fc600480360360608110156103c057600080fd5b506001600160a01b03813581169160208101359091169060400135610c7c565b610398600480360360408110156103f657600080fd5b506001600160a01b038135169060200135610cd1565b6102226004803603602081101561042257600080fd5b5035610d50565b6103986004803603604081101561043f57600080fd5b81359190810190604081016020820135600160201b81111561046057600080fd5b82018360208201111561047257600080fd5b803590602001918460018302840111600160201b8311171561049357600080fd5b509092509050610e46565b6102fc600480360360408110156104b457600080fd5b50803590602001356001600160a01b0316611207565b6102fc600480360360608110156104e057600080fd5b506001600160a01b038135811691602081013590911690604001356112df565b6102066004803603602081101561051657600080fd5b50356112fa565b6103986004803603602081101561053357600080fd5b5035611317565b6102066004803603602081101561055057600080fd5b503561137d565b6102b46004803603602081101561056d57600080fd5b5035611390565b6103986004803603602081101561058a57600080fd5b50356001600160a01b03166113e4565b610398600480360360208110156105b057600080fd5b503561144c565b6102fc600480360360408110156105cd57600080fd5b50803590602001356114b6565b610222611560565b6102fc600480360360408110156105f857600080fd5b506001600160a01b03813516906020013515156115c1565b6102fc6004803603604081101561062657600080fd5b81359190810190604081016020820135600160201b81111561064757600080fd5b82018360208201111561065957600080fd5b803590602001918460018302840111600160201b8311171561067a57600080fd5b50909250905061168d565b6102fc6004803603608081101561069b57600080fd5b6001600160a01b03823581169260208101359091169160408201359190810190608081016060820135600160201b8111156106d557600080fd5b8201836020820111156106e757600080fd5b803590602001918460018302840111600160201b8311171561070857600080fd5b91908080601f016020809104026020016040519081016040528093929190818152602001838380828437600092019190915250929550611740945050505050565b6102b46004803603602081101561075f57600080fd5b5035611798565b6103986004803603602081101561077c57600080fd5b503561180b565b6102226004803603602081101561079957600080fd5b5035611875565b610398600480360360208110156107b657600080fd5b503561195a565b610398600480360360408110156107d357600080fd5b81359190810190604081016020820135600160201b8111156107f457600080fd5b82018360208201111561080657600080fd5b803590602001918460018302840111600160201b8311171561082757600080fd5b91908080601f0160208091040260200160405190810160405280939291908181526020018383808284376000920191909152509295506119c1945050505050565b6102066004803603604081101561087e57600080fd5b506001600160a01b0381358116916020013516611ab6565b6001600160e01b03191660009081526020819052604090205460ff1690565b60098054604080516020601f60026000196101006001881615020190951694909404938401819004810282018101909252828152606093909290918301828280156109415780601f1061091657610100808354040283529160200191610941565b820191906000526020600020905b81548152906001019060200180831161092457829003601f168201915b505050505090505b90565b600061095782611ae4565b6109925760405162461bcd60e51b815260040180806020018281038252602c8152602001806124b6602c913960400191505060405180910390fd5b506000908152600260205260409020546001600160a01b031690565b60006109b982611390565b9050806001600160a01b0316836001600160a01b03161415610a0c5760405162461bcd60e51b81526004018080602001828103825260218152602001806125af6021913960400191505060405180910390fd5b336001600160a01b0382161480610a285750610a288133611ab6565b610a635760405162461bcd60e51b815260040180806020018281038252603881526020018061242b6038913960400191505060405180910390fd5b60008281526002602052604080822080546001600160a01b0319166001600160a01b0387811691821790925591518593918516917f8c5be1e5ebec7d5bd14f71427d1e84f3dd0314c0f7b2291e5b200ac8c7c3b92591a4505050565b80610ac981611ae4565b8015610ae15750610ae1610adb611b01565b82611b05565b8015610aed5750600081115b610b285760405162461bcd60e51b81526004018080602001828103825260308152602001806123ab6030913960400191505060405180910390fd5b6000828152600c602052604090204260019091015581610b46611b01565b6001600160a01b0316600080516020612537833981519152600060405180826004811115610b7057fe5b60ff16815260200191505060405180910390a35050565b82610b9181611ae4565b8015610ba35750610ba3610adb611b01565b8015610baf5750600081115b610bea5760405162461bcd60e51b81526004018080602001828103825260308152602001806123ab6030913960400191505060405180910390fd5b610c2a8484848080601f016020809104026020016040519081016040528093929190818152602001838380828437600092019190915250611ba192505050565b83610c33611b01565b6001600160a01b0316600080516020612537833981519152600460405180826004811115610c5d57fe5b60ff16815260200191505060405180910390a350505050565b60075490565b610c863382611b05565b610cc15760405162461bcd60e51b81526004018080602001828103825260318152602001806125d06031913960400191505060405180910390fd5b610ccc838383611c04565b505050565b6000610cdc836113e4565b8210610d195760405162461bcd60e51b815260040180806020018281038252602b81526020018061234e602b913960400191505060405180910390fd5b6001600160a01b0383166000908152600560205260409020805483908110610d3d57fe5b9060005260206000200154905092915050565b606081610d5c81611ae4565b8015610d685750600081115b610da35760405162461bcd60e51b81526004018080602001828103825260298152602001806125866029913960400191505060405180910390fd5b6000838152600c602090815260409182902060040180548351601f600260001961010060018616150201909316929092049182018490048402810184019094528084529091830182828015610e395780601f10610e0e57610100808354040283529160200191610e39565b820191906000526020600020905b815481529060010190602001808311610e1c57829003601f168201915b5050505050915050919050565b600080610e898585858080601f0160208091040260200160405190810160405280939291908181526020018383808284376000920191909152506119c192505050565b90506000610e9e610e98611b01565b87611b05565b90506000610eab83611ae4565b9050808015610ec65750610ec6610ec0611b01565b84611b05565b15610fd6576000838152600c60205260409020548714610f29576040805162461bcd60e51b81526020600482015260196024820152780829682a0744092dcecc2d8d2c840e0c2e4cadce840d0c2e6d603b1b604482015290519081900360640190fd5b6000838152600c602052604090206000196001909101558683610f4a611b01565b6001600160a01b03167f2574d3b5e98dcd17b129343ee43bda3629741c9f23256766c603c18f2c1f014e898960006040518080602001836002811115610f8c57fe5b60ff1681526020018281038252858582818152602001925080828437600083820152604051601f909101601f1916909201829003965090945050505050a460019350505050611200565b80158015610fe15750815b156110a757610ff7610ff1611b01565b84611c23565b6000838152600c60205260409020878155600019600190910155868361101b611b01565b6001600160a01b03167f2574d3b5e98dcd17b129343ee43bda3629741c9f23256766c603c18f2c1f014e89896001604051808060200183600281111561105d57fe5b60ff1681526020018281038252858582818152602001925080828437600083820152604051601f909101601f1916909201829003965090945050505050a460029350505050611200565b8080156110c557506000838152600c60205260409020600101544210155b80156110ce5750815b156111f8576000838152600c60205260409020548714611131576040805162461bcd60e51b81526020600482015260196024820152780829682a0744092dcecc2d8d2c840e0c2e4cadce840d0c2e6d603b1b604482015290519081900360640190fd5b61114b61113d84611390565b611145611b01565b85611c04565b6000838152600c60205260409020600019600190910155868361116c611b01565b6001600160a01b03167f2574d3b5e98dcd17b129343ee43bda3629741c9f23256766c603c18f2c1f014e8989600260405180806020018360028111156111ae57fe5b60ff1681526020018281038252858582818152602001925080828437600083820152604051601f909101601f1916909201829003965090945050505050a460039350505050611200565b600093505050505b9392505050565b8161121181611ae4565b80156112235750611223610adb611b01565b801561122f5750600081115b61126a5760405162461bcd60e51b81526004018080602001828103825260308152602001806123ab6030913960400191505060405180910390fd5b6000838152600c6020526040902060030180546001600160a01b0319166001600160a01b0384161790558261129d611b01565b6001600160a01b03166000805160206125378339815191526002604051808260048111156112c757fe5b60ff16815260200191505060405180910390a3505050565b610ccc83838360405180602001604052806000815250611740565b600061130582611ae4565b80156113115750600082115b92915050565b6000611321610c76565b821061135e5760405162461bcd60e51b815260040180806020018281038252602c815260200180612601602c913960400191505060405180910390fd5b6007828154811061136b57fe5b90600052602060002001549050919050565b600061131161138a611b01565b83611b05565b6000818152600160205260408120546001600160a01b0316806113115760405162461bcd60e51b815260040180806020018281038252602981526020018061248d6029913960400191505060405180910390fd5b60006001600160a01b03821661142b5760405162461bcd60e51b815260040180806020018281038252602a815260200180612463602a913960400191505060405180910390fd5b6001600160a01b038216600090815260036020526040902061131190611c44565b60008161145881611ae4565b80156114645750600081115b61149f5760405162461bcd60e51b81526004018080602001828103825260298152602001806125866029913960400191505060405180910390fd5b50506000908152600c602052604090206002015490565b816114c081611ae4565b80156114d257506114d2610adb611b01565b80156114de5750600081115b6115195760405162461bcd60e51b81526004018080602001828103825260308152602001806123ab6030913960400191505060405180910390fd5b6000838152600c6020526040902060020182905582611536611b01565b6001600160a01b03166000805160206125378339815191526001604051808260048111156112c757fe5b600a8054604080516020601f60026000196101006001881615020190951694909404938401819004810282018101909252828152606093909290918301828280156109415780601f1061091657610100808354040283529160200191610941565b6001600160a01b03821633141561161f576040805162461bcd60e51b815260206004820152601960248201527f4552433732313a20617070726f766520746f2063616c6c657200000000000000604482015290519081900360640190fd5b3360008181526004602090815260408083206001600160a01b03871680855290835292819020805460ff1916861515908117909155815190815290519293927f17307eab39ab6107e8899845ad3d59bd9653f200f220920489ca2b5937696c31929181900390910190a35050565b8261169781611ae4565b80156116a957506116a9610adb611b01565b80156116b55750600081115b6116f05760405162461bcd60e51b81526004018080602001828103825260308152602001806123ab6030913960400191505060405180910390fd5b6000848152600c6020526040902061170c906004018484612227565b5083611716611b01565b6001600160a01b0316600080516020612537833981519152600360405180826004811115610c5d57fe5b61174b848484610c7c565b61175784848484611c48565b6117925760405162461bcd60e51b81526004018080602001828103825260328152602001806123796032913960400191505060405180910390fd5b50505050565b6000816117a481611ae4565b80156117b05750600081115b6117eb5760405162461bcd60e51b81526004018080602001828103825260298152602001806125866029913960400191505060405180910390fd5b50506000908152600c60205260409020600301546001600160a01b031690565b60008161181781611ae4565b80156118235750600081115b61185e5760405162461bcd60e51b81526004018080602001828103825260298152602001806125866029913960400191505060405180910390fd5b50506000908152600c602052604090206001015490565b606061188082611ae4565b6118bb5760405162461bcd60e51b815260040180806020018281038252602f815260200180612557602f913960400191505060405180910390fd5b6000828152600b602090815260409182902080548351601f60026000196101006001861615020190931692909204918201849004840281018401909452808452909183018282801561194e5780601f106119235761010080835404028352916020019161194e565b820191906000526020600020905b81548152906001019060200180831161193157829003601f168201915b50505050509050919050565b60008161196681611ae4565b80156119725750600081115b6119ad5760405162461bcd60e51b81526004018080602001828103825260298152602001806125866029913960400191505060405180910390fd5b50506000908152600c602052604090205490565b600060018251101580156119d757506020825111155b611a28576040805162461bcd60e51b815260206004820152601a60248201527f414b41503a20496e76616c6964206c6162656c206c656e677468000000000000604482015290519081900360640190fd5b8151602080840191909120604080518084018790528082018390528151808203830181526060909101909152805192019190912080611aae576040805162461bcd60e51b815260206004820152601760248201527f414b41503a20496e76616c6964206e6f64652068617368000000000000000000604482015290519081900360640190fd5b949350505050565b6001600160a01b03918216600090815260046020908152604080832093909416825291909152205460ff1690565b6000908152600160205260409020546001600160a01b0316151590565b3390565b6000611b1082611ae4565b611b4b5760405162461bcd60e51b815260040180806020018281038252602c8152602001806123ff602c913960400191505060405180910390fd5b6000611b5683611390565b9050806001600160a01b0316846001600160a01b03161480611b915750836001600160a01b0316611b868461094c565b6001600160a01b0316145b80611aae5750611aae8185611ab6565b611baa82611ae4565b611be55760405162461bcd60e51b815260040180806020018281038252602c8152602001806124e2602c913960400191505060405180910390fd5b6000828152600b602090815260409091208251610ccc928401906122a5565b611c0f838383611d7b565b611c198382611ebf565b610ccc8282611fb4565b611c2d8282611ff2565b611c378282611fb4565b611c4081612123565b5050565b5490565b6000611c5c846001600160a01b0316612167565b611c6857506001611aae565b604051630a85bd0160e11b815233600482018181526001600160a01b03888116602485015260448401879052608060648501908152865160848601528651600095928a169463150b7a029490938c938b938b939260a4019060208501908083838e5b83811015611ce2578181015183820152602001611cca565b50505050905090810190601f168015611d0f5780820380516001836020036101000a031916815260200191505b5095505050505050602060405180830381600087803b158015611d3157600080fd5b505af1158015611d45573d6000803e3d6000fd5b505050506040513d6020811015611d5b57600080fd5b50516001600160e01b031916630a85bd0160e11b14915050949350505050565b826001600160a01b0316611d8e82611390565b6001600160a01b031614611dd35760405162461bcd60e51b815260040180806020018281038252602981526020018061250e6029913960400191505060405180910390fd5b6001600160a01b038216611e185760405162461bcd60e51b81526004018080602001828103825260248152602001806123db6024913960400191505060405180910390fd5b611e218161216d565b6001600160a01b0383166000908152600360205260409020611e42906121aa565b6001600160a01b0382166000908152600360205260409020611e63906121c1565b60008181526001602052604080822080546001600160a01b0319166001600160a01b0386811691821790925591518493918716917fddf252ad1be2c89b69c2b068fc378daa952ba7f163c4a11628f55a4df523b3ef91a4505050565b6001600160a01b038216600090815260056020526040812054611ee990600163ffffffff6121ca16565b600083815260066020526040902054909150808214611f84576001600160a01b0384166000908152600560205260408120805484908110611f2657fe5b906000526020600020015490508060056000876001600160a01b03166001600160a01b031681526020019081526020016000208381548110611f6457fe5b600091825260208083209091019290925591825260069052604090208190555b6001600160a01b0384166000908152600560205260409020805490611fad906000198301612313565b5050505050565b6001600160a01b0390911660009081526005602081815260408084208054868652600684529185208290559282526001810183559183529091200155565b6001600160a01b03821661204d576040805162461bcd60e51b815260206004820181905260248201527f4552433732313a206d696e7420746f20746865207a65726f2061646472657373604482015290519081900360640190fd5b61205681611ae4565b156120a8576040805162461bcd60e51b815260206004820152601c60248201527f4552433732313a20746f6b656e20616c7265616479206d696e74656400000000604482015290519081900360640190fd5b600081815260016020908152604080832080546001600160a01b0319166001600160a01b0387169081179091558352600390915290206120e7906121c1565b60405181906001600160a01b038416906000907fddf252ad1be2c89b69c2b068fc378daa952ba7f163c4a11628f55a4df523b3ef908290a45050565b600780546000838152600860205260408120829055600182018355919091527fa66cc928b5edb82af9bd49922954155ab7b0942694bea4ce44661d9a8736c6880155565b3b151590565b6000818152600260205260409020546001600160a01b0316156121a757600081815260026020526040902080546001600160a01b03191690555b50565b80546121bd90600163ffffffff6121ca16565b9055565b80546001019055565b600082821115612221576040805162461bcd60e51b815260206004820152601e60248201527f536166654d6174683a207375627472616374696f6e206f766572666c6f770000604482015290519081900360640190fd5b50900390565b828054600181600116156101000203166002900490600052602060002090601f016020900481019282601f106122685782800160ff19823516178555612295565b82800160010185558215612295579182015b8281111561229557823582559160200191906001019061227a565b506122a1929150612333565b5090565b828054600181600116156101000203166002900490600052602060002090601f016020900481019282601f106122e657805160ff1916838001178555612295565b82800160010185558215612295579182015b828111156122955782518255916020019190600101906122f8565b815481835581811115610ccc57600083815260209020610ccc9181019083015b61094991905b808211156122a1576000815560010161233956fe455243373231456e756d657261626c653a206f776e657220696e646578206f7574206f6620626f756e64734552433732313a207472616e7366657220746f206e6f6e20455243373231526563656976657220696d706c656d656e746572414b41503a207365742076616c75652063616c6c6572206973206e6f74206f776e6572206e6f7220617070726f7665644552433732313a207472616e7366657220746f20746865207a65726f20616464726573734552433732313a206f70657261746f7220717565727920666f72206e6f6e6578697374656e7420746f6b656e4552433732313a20617070726f76652063616c6c6572206973206e6f74206f776e6572206e6f7220617070726f76656420666f7220616c6c4552433732313a2062616c616e636520717565727920666f7220746865207a65726f20616464726573734552433732313a206f776e657220717565727920666f72206e6f6e6578697374656e7420746f6b656e4552433732313a20617070726f76656420717565727920666f72206e6f6e6578697374656e7420746f6b656e4552433732314d657461646174613a2055524920736574206f66206e6f6e6578697374656e7420746f6b656e4552433732313a207472616e73666572206f6620746f6b656e2074686174206973206e6f74206f776e4e643f23cbc202af4f83dce574290af81b7d940546736d83eec38524c05908f84552433732314d657461646174613a2055524920717565727920666f72206e6f6e6578697374656e7420746f6b656e414b41503a206f70657261746f7220717565727920666f72206e6f6e6578697374656e74206e6f64654552433732313a20617070726f76616c20746f2063757272656e74206f776e65724552433732313a207472616e736665722063616c6c6572206973206e6f74206f776e6572206e6f7220617070726f766564455243373231456e756d657261626c653a20676c6f62616c20696e646578206f7574206f6620626f756e6473a265627a7a72315820fad6b581bcdb67eb97ac3e02062c4c98693ea66a316c8b2acf1207be83e0b82064736f6c63430005100032",
  "source": "// Copyright (C) 2019  Christian Felde\n// Copyright (C) 2019  Mohamed Elshami\n\n// Licensed under the Apache License, Version 2.0 (the \"License\");\n// you may not use this file except in compliance with the License.\n// You may obtain a copy of the License at\n\n// http://www.apache.org/licenses/LICENSE-2.0\n\n// Unless required by applicable law or agreed to in writing, software\n// distributed under the License is distributed on an \"AS IS\" BASIS,\n// WITHOUT WARRANTIES OR CONDITIONS OF ANY KIND, either express or implied.\n// See the License for the specific language governing permissions and\n// limitations under the License.\n\npragma solidity ^0.5.0;\n\nimport \"./IAKAP.sol\";\nimport \"@openzeppelin/contracts/token/ERC721/ERC721Full.sol\";\n\ncontract AKAF is IAKAP, ERC721Full {\n    struct Node {\n        uint parentId;\n        uint expiry;\n        uint seeAlso;\n        address seeAddress;\n        bytes nodeBody;\n    }\n\n    mapping(uint => Node) private nodes;\n\n    constructor() ERC721Full(\"AKA Forever Registry\", \"AKAF\") public {\n        // Create the special root node and assigned msg.sender as owner\n        uint nodeId = 0;\n        _mint(_msgSender(), nodeId);\n        nodes[nodeId].expiry = uint(-1);\n        emit Claim(_msgSender(), nodeId, nodeId, \"\", ClaimCase.NEW);\n    }\n\n    function _msgSender() internal view returns (address payable) {\n        return msg.sender;\n    }\n\n    modifier onlyExisting(uint nodeId) {\n        require(_exists(nodeId) && nodeId > 0, \"AKAP: operator query for nonexistent node\");\n\n        _;\n    }\n\n    modifier onlyApproved(uint nodeId) {\n        require(_exists(nodeId) && _isApprovedOrOwner(_msgSender(), nodeId) && nodeId > 0, \"AKAP: set value caller is not owner nor approved\");\n\n        _;\n    }\n\n    function hashOf(uint parentId, bytes memory label) public pure returns (uint id) {\n        require(label.length >= 1 && label.length <= 32, \"AKAP: Invalid label length\");\n\n        bytes32 labelHash = keccak256(label);\n        bytes32 nodeId = keccak256(abi.encode(parentId, labelHash));\n\n        require(nodeId > 0, \"AKAP: Invalid node hash\");\n\n        return uint(nodeId);\n    }\n\n    function claim(uint parentId, bytes calldata label) external returns (uint status) {\n        // Claim logic is as found in AKAP, but with an expiry timestamp set to \"forever\".\n        // Owners of a node on an AKAF contract does hence not need to reclaim their nodes.\n        // Node owners may still explicitly expire a node if they wish.\n\n        // Get hash/id of the node caller is claiming\n        uint nodeId = hashOf(parentId, label);\n\n        bool isParentOwner = _isApprovedOrOwner(_msgSender(), parentId);\n        bool nodeExists = _exists(nodeId);\n\n        if (nodeExists && _isApprovedOrOwner(_msgSender(), nodeId)) {\n            require(parentId == nodes[nodeId].parentId, \"AKAP: Invalid parent hash\");\n\n            // Caller is current owner/approved, extend lease..\n            nodes[nodeId].expiry = uint(-1);\n            emit Claim(_msgSender(), nodeId, parentId, label, ClaimCase.RECLAIM);\n\n            return 1;\n        } else if (!nodeExists && isParentOwner) {\n            // Node does not exist, allocate to caller..\n            _mint(_msgSender(), nodeId);\n            nodes[nodeId].parentId = parentId;\n            nodes[nodeId].expiry = uint(-1);\n            emit Claim(_msgSender(), nodeId, parentId, label, ClaimCase.NEW);\n\n            return 2;\n        } else if (nodeExists && nodes[nodeId].expiry <= now && isParentOwner) {\n            require(parentId == nodes[nodeId].parentId, \"AKAP: Invalid parent hash\");\n\n            // Node exists and is expired, allocate to caller and extend lease..\n            _transferFrom(ownerOf(nodeId), _msgSender(), nodeId);\n            nodes[nodeId].expiry = uint(-1);\n            emit Claim(_msgSender(), nodeId, parentId, label, ClaimCase.TRANSFER);\n\n            return 3;\n        }\n\n        // No action\n        return 0;\n    }\n\n    function exists(uint nodeId) external view returns (bool) {\n        return _exists(nodeId) && nodeId > 0;\n    }\n\n    function isApprovedOrOwner(uint nodeId) external view returns (bool) {\n        return _isApprovedOrOwner(_msgSender(), nodeId);\n    }\n\n    function parentOf(uint nodeId) external view onlyExisting(nodeId) returns (uint) {\n        return nodes[nodeId].parentId;\n    }\n\n    function expiryOf(uint nodeId) external view onlyExisting(nodeId) returns (uint) {\n        return nodes[nodeId].expiry;\n    }\n\n    function seeAlso(uint nodeId) external view onlyExisting(nodeId) returns (uint) {\n        return nodes[nodeId].seeAlso;\n    }\n\n    function seeAddress(uint nodeId) external view onlyExisting(nodeId) returns (address) {\n        return nodes[nodeId].seeAddress;\n    }\n\n    function nodeBody(uint nodeId) external view onlyExisting(nodeId) returns (bytes memory) {\n        return nodes[nodeId].nodeBody;\n    }\n\n    function expireNode(uint nodeId) external onlyApproved(nodeId) {\n        nodes[nodeId].expiry = now;\n        emit AttributeChanged(_msgSender(), nodeId, NodeAttribute.EXPIRY);\n    }\n\n    function setSeeAlso(uint nodeId, uint value) external onlyApproved(nodeId) {\n        nodes[nodeId].seeAlso = value;\n        emit AttributeChanged(_msgSender(), nodeId, NodeAttribute.SEE_ALSO);\n    }\n\n    function setSeeAddress(uint nodeId, address value) external onlyApproved(nodeId) {\n        nodes[nodeId].seeAddress = value;\n        emit AttributeChanged(_msgSender(), nodeId, NodeAttribute.SEE_ADDRESS);\n    }\n\n    function setNodeBody(uint nodeId, bytes calldata value) external onlyApproved(nodeId) {\n        nodes[nodeId].nodeBody = value;\n        emit AttributeChanged(_msgSender(), nodeId, NodeAttribute.NODE_BODY);\n    }\n\n    function setTokenURI(uint nodeId, string calldata uri) external onlyApproved(nodeId) {\n        _setTokenURI(nodeId, uri);\n        emit AttributeChanged(_msgSender(), nodeId, NodeAttribute.TOKEN_URI);\n    }\n}",
  "sourcePath": "/private/tmp/eth/akap/contracts/AKAF.sol",
  "compiler": {
    "name": "solc",
    "version": "0.5.16+commit.9c3226ce.Emscripten.clang"
  },
  "schemaVersion": "3.0.23",
  "updatedAt": "2020-05-13T14:37:55.412Z",
  "devdoc": {
    "methods": {
      "approve(address,uint256)": {
        "details": "Approves another address to transfer the given token ID The zero address indicates there is no approved address. There can only be one approved address per token at a given time. Can only be called by the token owner or an approved operator.",
        "params": {
          "to": "address to be approved for the given token ID",
          "tokenId": "uint256 ID of the token to be approved"
        }
      },
      "balanceOf(address)": {
        "details": "Gets the balance of the specified address.",
        "params": {
          "owner": "address to query the balance of"
        },
        "return": "uint256 representing the amount owned by the passed address"
      },
      "getApproved(uint256)": {
        "details": "Gets the approved address for a token ID, or zero if no address set Reverts if the token ID does not exist.",
        "params": {
          "tokenId": "uint256 ID of the token to query the approval of"
        },
        "return": "address currently approved for the given token ID"
      },
      "isApprovedForAll(address,address)": {
        "details": "Tells whether an operator is approved by a given owner.",
        "params": {
          "operator": "operator address which you want to query the approval of",
          "owner": "owner address which you want to query the approval of"
        },
        "return": "bool whether the given operator is approved by the given owner"
      },
      "name()": {
        "details": "Gets the token name.",
        "return": "string representing the token name"
      },
      "ownerOf(uint256)": {
        "details": "Gets the owner of the specified token ID.",
        "params": {
          "tokenId": "uint256 ID of the token to query the owner of"
        },
        "return": "address currently marked as the owner of the given token ID"
      },
      "safeTransferFrom(address,address,uint256)": {
        "details": "Safely transfers the ownership of a given token ID to another address If the target address is a contract, it must implement `onERC721Received`, which is called upon a safe transfer, and return the magic value `bytes4(keccak256(\"onERC721Received(address,address,uint256,bytes)\"))`; otherwise, the transfer is reverted. Requires the msg.sender to be the owner, approved, or operator",
        "params": {
          "from": "current owner of the token",
          "to": "address to receive the ownership of the given token ID",
          "tokenId": "uint256 ID of the token to be transferred"
        }
      },
      "safeTransferFrom(address,address,uint256,bytes)": {
        "details": "Safely transfers the ownership of a given token ID to another address If the target address is a contract, it must implement `onERC721Received`, which is called upon a safe transfer, and return the magic value `bytes4(keccak256(\"onERC721Received(address,address,uint256,bytes)\"))`; otherwise, the transfer is reverted. Requires the msg.sender to be the owner, approved, or operator",
        "params": {
          "_data": "bytes data to send along with a safe transfer check",
          "from": "current owner of the token",
          "to": "address to receive the ownership of the given token ID",
          "tokenId": "uint256 ID of the token to be transferred"
        }
      },
      "setApprovalForAll(address,bool)": {
        "details": "Sets or unsets the approval of a given operator An operator is allowed to transfer all tokens of the sender on their behalf.",
        "params": {
          "approved": "representing the status of the approval to be set",
          "to": "operator address to set the approval"
        }
      },
      "supportsInterface(bytes4)": {
        "details": "See `IERC165.supportsInterface`.     * Time complexity O(1), guaranteed to always use less than 30 000 gas."
      },
      "symbol()": {
        "details": "Gets the token symbol.",
        "return": "string representing the token symbol"
      },
      "tokenByIndex(uint256)": {
        "details": "Gets the token ID at a given index of all the tokens in this contract Reverts if the index is greater or equal to the total number of tokens.",
        "params": {
          "index": "uint256 representing the index to be accessed of the tokens list"
        },
        "return": "uint256 token ID at the given index of the tokens list"
      },
      "tokenOfOwnerByIndex(address,uint256)": {
        "details": "Gets the token ID at a given index of the tokens list of the requested owner.",
        "params": {
          "index": "uint256 representing the index to be accessed of the requested tokens list",
          "owner": "address owning the tokens list to be accessed"
        },
        "return": "uint256 token ID at the given index of the tokens list owned by the requested address"
      },
      "tokenURI(uint256)": {
        "details": "Returns an URI for a given token ID. Throws if the token ID does not exist. May return an empty string.",
        "params": {
          "tokenId": "uint256 ID of the token to query"
        }
      },
      "totalSupply()": {
        "details": "Gets the total amount of tokens stored by the contract.",
        "return": "uint256 representing the total amount of tokens"
      },
      "transferFrom(address,address,uint256)": {
        "details": "Transfers the ownership of a given token ID to another address. Usage of this method is discouraged, use `safeTransferFrom` whenever possible. Requires the msg.sender to be the owner, approved, or operator.",
        "params": {
          "from": "current owner of the token",
          "to": "address to receive the ownership of the given token ID",
          "tokenId": "uint256 ID of the token to be transferred"
        }
      }
    }
  },
  "userdoc": {
    "methods": {}
  }
}